:10000000E8C0000017C1000015C1000013C10000C6
:1000100011C100000FC100000DC100000BC10000A4
:1000200009C1000007C1000005C1000003C10000B4
:1000300001C10000FFC00000FDC00000FBC00000C7
:10004000F9C00000F7C00000F5C00000F3C00000D8
:10005000F1C00000EFC00000EDC000000C9456108D
:10006000E9C000000C941A100C94F00FE3C00000DB
:10007000E1C00000DFC00000DDC00000DBC0000008
:10008000D9C00000D7C00000D5C00000D3C0000018
:10009000D1C00000CFC00000CDC00000CBC0000028
:1000A000C9C00000C7C00000C5C00000C3C0000038
:1000B000C1C00000BFC00000BDC00000BBC0000048
:1000C000B9C00000B7C00000B5C00000B3C0000058
:1000D000B1C00000AFC00000ADC00000ABC0000068
:1000E000A9C0000000002200250028002B002E00DF
:1000F0003100340002010000050108010B01050573
:100100000505070508080808020202020A0A08088D
:1001100004040404010101010101010103030303BB
:1001200003030303040707070C0C0C0C0C0C0C0C4A
:100130000202020206060606060606060B0B0B0B5B
:100140000B0B0B0B01021020200808102040102080
:10015000408002010201080402010102040810208B
:100160004080804020100804020180040201804089
:1001700020100804020108040201010204081020F2
:100180004080010204081020408000000A0B020990
:100190000C0D0E0807030401000000000000000021
:1001A000000000000000000000000000000000004F
:1001B000000000000000121110000000000000000C
:1001C000000000000000000000000000000000002F
:1001D000B11011241FBECFEFD1E2DEBFCDBF00E0D2
:1001E0000CBF24E0ACEFB2E001C01D92AD31B2070C
:1001F000E1F712E0A0E0B2E0E6EFF6E200E00BBFCC
:1002000002C007900D92AC3FB107D9F710E0C9EEDC
:10021000D0E000E006C021970109802FFE010E9476
:100220006011C83ED10780E00807A9F70E94E90FD6
:100230000C947913E5CE0895DC01ED91FC910190C9
:10024000F081E02D19950895DB0114964D915C9194
:1002500015976D917C91DC01ED91FC910280F38109
:10026000E02D19950895CF92DF92EF92FF920F93B0
:100270001F93CF93DF938C01DB01D0E0C0E07A01C4
:1002800081E0E81AF108452BA1F0F8018081918105
:10029000FC01208131816D01FFEFCF1ADF0A6C91E3
:1002A000C801F9011995892B21F02196A701D601E2
:1002B000E6CFCE01DF91CF911F910F91FF90EF908C
:1002C000DF90CF90089508956FEF7FEF81E090E089
:1002D00001C00895019709F008956F3F7F4FE1F73E
:1002E000ECE7F3E01382128288EE93E0A0E0B0E046
:1002F00084839583A683B7838AE092E09183808389
:1003000085EC90E09587848784EC90E097878687DA
:1003100080EC90E0918B808B81EC90E0938B828BD2
:1003200082EC90E0958B848B86EC90E0978B868BAB
:10033000118E128E138E148ECFCFFC01938D848D6F
:10034000981720F4891B990B019708952FE330E04B
:10035000291B3109820F932F911D0895FC01918D66
:10036000828D981761F0A28DAE0FBF2FB11D5D96E3
:100370008C91928D9F5F9F73928F90E008958FEF85
:100380009FEF0895FC01918D828D981731F0828D39
:10039000E80FF11D858D90E008958FEF9FEF089590
:1003A000FC01218D30E0205C3F4F828DA901481B6C
:1003B0005109CA018F73992708958CE793E0F0DF04
:1003C00021E0892B09F420E0822F0895CF92DF925B
:1003D000EF92FF921F93CF93DF93EC016A017B01B1
:1003E000122F60E079E08DE390E0A70196010E9472
:1003F0003E112150310941095109569547953795CC
:100400002795E889F98982E08083C11481EED806B6
:10041000E104F10421F0211580E1380798F0E88922
:10042000F989108260E874E88EE190E0A7019601F6
:100430000E943E11215031094109510956954795B5
:1004400037952795EC85FD853083EE85FF852083E4
:10045000188EEC89FD891083EA89FB89808180618F
:100460008083EA89FB89808188608083EA89FB89AF
:10047000808180688083EA89FB8980818F7D808389
:10048000DF91CF911F91FF90EF90DF90CF90089573
:10049000FC01A48DA80FB92FB11DA35ABF4F2C91F9
:1004A000848D90E001968F739078848FA689B789A8
:1004B0002C93A089B1898C91837080648C93938DE7
:1004C000848D981308950288F389E02D80818F7DB3
:1004D0008083F8CF0F931F93CF93DF93EC0181E0DC
:1004E000888F9B8D8C8D9817A9F0062F8B8D90E0AF
:1004F00001968F739078182F8C8D81131DC00FB6C5
:1005000007FCFACFE889F989808185FFF5CFCE0114
:10051000BFDFF2CFE889F989808185FFE6CF9FB7F9
:10052000F894EE89FF896083E889F9898081837076
:10053000806480839FBF10C0EB8DEC0FFD2FF11DF9
:10054000E35AFF4F00839FB7F8941B8FEA89FB891A
:100550008081806280839FBF81E090E0DF91CF91B6
:100560001F910F910895CF93DF93EC01888D811136
:1005700004C00DC00FB607FE0DC0EA89FB8980815B
:1005800085FDF8CFA889B9898C9186FFF3CFDF91DB
:10059000CF910895808185FFF0CFE889F989808126
:1005A00085FFEBCFCE0174DFE8CF80E090E0892BB0
:1005B00019F003DF811125C080E090E0892B41F024
:1005C00080E090E0892B21F00E94000081111CC086
:1005D00080E090E0892B41F080E090E0892B21F0D1
:1005E0000E940000811113C080E090E0892B41F04F
:1005F00080E090E0892B21F00E94000081110AC068
:1006000008950E940000D8CF0E940000E1CF0E9410
:100610000000EACF0E940000F3CF8150823108F041
:1006200075C0E82FF0E08827E75EFC4F8F4F0C94F1
:1006300060113D0341032B03310337038603450358
:100640004B03510357035D03630369036F03860381
:1006500075037B038103E0E8F0E080818F7780837E
:100660000895E0E8F0E080818F7D80830895E0E8E0
:10067000F0E08081877F8083089584B58F7784BD83
:10068000089584B58F7D84BD0895E0EBF0E080810E
:100690008F7780830895E0EBF0E080818F7D808309
:1006A0000895E0E9F0E080818F7780830895E0E9A4
:1006B000F0E080818F7D80830895E0E9F0E0808123
:1006C000877F80830895E0EAF0E080818F778083E0
:1006D0000895E0EAF0E080818F7D80830895E0EA6C
:1006E000F0E08081877F80830895E0E2F1E08081FF
:1006F0008F7780830895E0E2F1E080818F7D8083B1
:100700000895E0E2F1E08081877F808308951F9360
:10071000CF93DF93282F30E0F901E657FE4F849105
:10072000F901EC5BFE4F1491F901E250FF4FC491C7
:10073000CC23A9F0D62F811116C0EC2FF0E0EE0FDC
:10074000FF1FEC51FF4FA591B4918FB7F894D111D1
:100750000CC09C91E12FE095E923EC938FBFDF91D2
:10076000CF911F91089559DFE8CFEC91E12BEC93E5
:10077000F5CF789484B5826084BD84B5816084BDF2
:1007800085B5826085BD85B5816085BDEEE6F0E00A
:10079000808181608083E1E8F0E010828081826066
:1007A0008083808181608083E0E8F0E080818160E7
:1007B0008083E1EBF0E0808184608083E0EBF0E017
:1007C000808181608083E1E9F0E0808182608083C4
:1007D000808181608083E0E9F0E0808181608083B6
:1007E000E1EAF0E0808182608083808181608083A3
:1007F000E0EAF0E0808181608083E1E2F1E08081E5
:1008000082608083808181608083E0E2F1E080818A
:1008100081608083EAE7F0E080818460808380816A
:100820008260808380818160808380818068808312
:100830001092C10008953FB7F89480917803909189
:100840007903A0917A03B0917B0326B5A89B05C0DC
:100850002F3F19F00196A11DB11D3FBFBA2FA92F3F
:10086000982F8827BC01CD01620F711D811D911D3C
:10087000660F771F881F991F660F771F881F991FA4
:1008800008958F929F92AF92BF92CF92DF92EF9294
:10089000FF926B017C01CFDF4B015C011AC021E0AC
:1008A000C21AD108E108F10888EE880E83E0981E8C
:1008B000A11CB11CC114D104E104F10451F0BBDF4F
:1008C000681979098A099B09683E73408105910579
:1008D00030F7C114D104E104F10461F7FF90EF9007
:1008E000DF90CF90BF90AF909F908F9008952FB7DB
:1008F000F8946091740370917503809176039091E0
:1009000077032FBF08956FEF7FEF81E090E036C04F
:1009100008958CE793E044CD08958CE793E032CDC1
:1009200008958CE793E01ACD0895CF92DF92EF926D
:10093000FF926A017B0168EE73E080E090E0A1DF46
:1009400026E0B701A6018CE793E040DDFF90EF9031
:10095000DF90CF9008950895FC01168217821086CB
:100960001186128613861486158616861786108AB7
:10097000118A128A138A148A158A0895019709F038
:1009800008956F3F7F4FE1F78DE293E0E5DFF8CF09
:10099000AECF08958F929F92AF92BF92CF92DF9287
:1009A000EF92FF92CF93DF93EC016A017B01F0DFBE
:1009B0004B015C01C80CD91CEA1CFB1CCE01E8DF12
:1009C000681579058A059B0528F0C616D706E8063E
:1009D000F906A0F7DF91CF91FF90EF90DF90CF90D5
:1009E000BF90AF909F908F9008950F931F93CF93D8
:1009F000DF93EC01662361F0CE01CADF6A837B835B
:100A00008C839D8381E0DF91CF911F910F91089599
:100A1000BFDF0A811B812C813D81DC01CB01801B62
:100A2000910BA20BB30B81329105A105B10520F703
:100A300041E250E060E070E0481B590B6A0B7B0B11
:100A400021E0CE01A7DFD8CF21E0A4CF0895FC019B
:100A5000EE5BFF4F1082118212821382FC01128220
:100A6000138214821582411551056105710509F43F
:100A70000895EADFFDCF0895FC014685578581E0A2
:100A800024853585241735070CF480E00895FC0192
:100A9000718B608B0895AF92BF92CF92DF92EF92ED
:100AA000FF920F931F93FC0117861686738B628B40
:100AB0005383428331832083E086F1860287138744
:100AC000D586C486B18AA08A1F910F91FF90EF90BE
:100AD000DF90CF90BF90AF9008956FEF7FEF81E0F0
:100AE00090E001C00895019709F008956F3F7F4F8E
:100AF000E1F7E0E0F3E0F1A7E0A7F3A7E2A714A68F
:100B0000F4CFFC0194A59923A9F0A2A5B3A5AD014A
:100B10004250510953A742A72D913C914E175F07B0
:100B200028F4AF014A5D5F4F53A742A7915094A7A5
:100B3000C901089502A4F3A5E02D20813181F8CFE9
:100B4000FC0182A593A5029693A782A79F01285D29
:100B50003F4F8217930791F0A2A5B3A56D937C93A5
:100B600084A5843171F091E0980F94A7811117C08A
:100B700082A593A591A780A781E00895F3A7E2A796
:100B8000EBCF80A591A5029691A780A728173907DA
:100B900011F080E00895F1A7E0A780E0089581E0DA
:100BA000089590912C0381E0911101C080E0089597
:100BB00080E093E0A6CF0895E0912803F091290307
:100BC000808191810895BC0180E093E0B9CF0895C0
:100BD000DF92EF92FF920F931F93CF93DF93CDB7E6
:100BE000DEB7A1970FB6F894DEBF0FBECDBF7C0174
:100BF000CB01BA01D22E19A221E02D1520F48E01CD
:100C00000F5D1F4F0EC00F2EFAE0DF2EF02DF7CF35
:100C1000E95CD801EE938D0161157105810591059F
:100C200079F02D2D30E050E040E00E943E11E62F9B
:100C3000622F732F842F952FEA3054F7E05DE9CFB0
:100C40001097F9F0FD0101900020E9F73197AF010D
:100C50004A1B5B0BD701ED91FC910280F381E02DE3
:100C6000B801C7011995A1960FB6F894DEBF0FBE63
:100C7000CDBFDF91CF911F910F91FF90EF90DF904B
:100C8000089590E080E0EFCF2115310549F4DC01B3
:100C9000ED91FC910190F081E02D642F199508955C
:100CA00097CF08959A01462F50E070E060E0ECCFB6
:100CB0000895CF92DF92EF92FF920F931F93CF93FD
:100CC000DF93EC016A017B012115310581F4E88194
:100CD000F9810190F081E02D642F1995DF91CF917A
:100CE0001F910F91FF90EF90DF90CF9008952A30E1
:100CF0003105A9F4FF201CF02AE06ADFEFCF6DE296
:100D00009BDA8C0144275527BA014C195D096E09FD
:100D10007F092AE0CE015CDF800F911FDFCF58DF13
:100D2000DDCF9A01AB01770F660B770BC2CF089529
:100D3000DC01ED91FC910280F381E02D42E050E076
:100D400068E172E0199508950F931F93CF93DF9395
:100D5000EC01A8DF8C01CE01EBDF800F911FDF914A
:100D6000CF911F910F9108950F931F93CF93DF930E
:100D7000EC016ADA8C01CE01DBDF800F911FDF917D
:100D8000CF911F910F9108956115710581F0FB01BD
:100D900001900020E9F73197AF01461B570BDC01AA
:100DA000ED91FC910280F381E02D1995089590E07A
:100DB00080E008950F931F93CF93DF93EC01E4DF5E
:100DC0008C01CE01B5DF800F911FDF91CF911F9174
:100DD0000F9108956BE172E08CE793E0EBCF0895FB
:100DE0001F93CF93DF93EC01162F61E0FEDD62E2EB
:100DF00072E08CE793E0C8DF4AE050E0612F8CE7B7
:100E000093E050DF69E272E08CE793E0D3DF42E3E6
:100E100050E060E070E0CE0117DEDF91CF911F91CE
:100E200008950F931F93CF93DF93FC01268922230C
:100E3000F9F0062FEC016DDD882309F1CE0169DDA3
:100E40008823F9F0CE016DDD182F8836E1F040F4EB
:100E5000883559F0833691F7602FCE01C1DF09C084
:100E6000813789F0863729F0E9CF1E8A13E601C061
:100E700013E6812FDF91CF911F910F91089515E611
:100E8000F8CF15E6F6CF13E6F4CF1F93CF93DF9399
:100E9000EC01142F662371F081E08E8B60E0CE01AF
:100EA000C0DF833639F041E050E060E070E0CE0111
:100EB000CBDDF4CF1E8BDF91CF911F910895CF92A0
:100EC000DF92EF92FF921F93CF93DF93EC01162FE7
:100ED0005FDD6B017C0160E372E08CE793E054DF3F
:100EE0004AE050E0612F8CE793E0DCDE67E372E0DC
:100EF0008CE793E049DF2AE030E0B701A6018CE7F8
:100F000093E0C2DE69E372E08CE793E03DDF8E811F
:100F10009F81A885B985B701A601481B590B6A0BAB
:100F20007B0B2AE030E08CE793E0AEDE69E372E011
:100F30008CE793E029DF4E815F81688579858A851A
:100F40009B85AC85BD85481B590B6A0B7B0B2AE042
:100F500030E08CE793E098DEDF91CF911F91FF9016
:100F6000EF90DF90CF9008950F931F93CF93DF936F
:100F7000EC018B016F5F7F4F888199810E948D12F8
:100F8000009751F0998388831B830A8381E0DF9166
:100F9000CF911F910F91089580E0F9CFCF93DF9308
:100FA000EC0128813981232B29F02A813B812617E6
:100FB000370768F4CE01D8DF882351F08C819D81FA
:100FC000892B49F4E881F981108281E001C081E038
:100FD000DF91CF91089581E0FBCFEF92FF920F93C5
:100FE0001F93CF93DF93FC01C481D581C40FD51F1C
:100FF00061157105F9F0452B41F481E0DF91CF9146
:101000001F910F91FF90EF9008957B018C01BE011D
:10101000C5DF882399F3F80120813181848195818E
:10102000B701820F931F0E947213F801D583C48306
:1010300081E0E4CF80E0E2CFEF92FF920F931F9325
:10104000CF93DF93CDB7DEB72E970FB6F894DEBF00
:101050000FBECDBF7C01CB01BA012AE08E010F5F2C
:101060001F4FA8010E94DE10F80101900020E9F74F
:101070003197AF01401B510BB801C701AEDF2E966F
:101080000FB6F894DEBF0FBECDBFDF91CF911F9199
:101090000F91FF90EF900895EF92FF920F931F939F
:1010A000CF93DF9300D000D01F921F92CDB7DEB751
:1010B0007C01CB014AE08E010F5F1F4FB8010E94F7
:1010C000D410F80101900020E9F73197AF01401BDF
:1010D000510BB801C70181DF28960FB6F894DEBF27
:1010E0000FBECDBFDF91CF911F910F91FF90EF9079
:1010F0000895CF93DF93EC0188819981009711F0D7
:101100000E940412198218821D821C821B821A827C
:10111000DF91CF910895CF93DF93EC018DDF88238A
:1011200021F0CE01DF91CF910895CE01E2DFF9CF1A
:10113000CF93DF93EC01B0DF882321F0CE01DF9164
:10114000CF910895CE01D5DFF9CFCF93DF93EC0196
:101150006115710559F0FB0101900020E9F7319705
:10116000AF01461B570B39DF811102C0CE01C1DF31
:10117000CE01DF91CF910895CF93DF93EC01FB0176
:10118000448155816081718128DF882321F0CE015F
:10119000DF91CF910895CE01ACDFF9CFEF92FF92AE
:1011A0000F931F93CF93DF93EC017B018A01BA0168
:1011B000F5DE882379F01D830C83B701888199813E
:1011C0000E947213CE01DF91CF911F910F91FF907A
:1011D000EF900895CE018DDFF5CFCF93DF93EC0133
:1011E000FB018617970741F06081718161157105D8
:1011F00039F044815581D2DFCE01DF91CF9108953E
:1012000078DFFACFFC0111821082138212821582DC
:101210001482E3CF0895FC0111821082138212829E
:10122000158214826115710549F0FB0101900020BF
:10123000E9F73197AF01461B570BB0CF0895CF9315
:10124000DF93EC016730710590F4FB018827E45DC2
:10125000F64F8F4F0C94601133093B094009450943
:101260004A094F0954096BE372E0CE01D4DFCE0185
:10127000DF91CF91089567E472E0CE01CCDFF7CF24
:1012800067E572E0CE01C7DFF2CF65E672E0CE011E
:10129000C2DFEDCF63E772E0CE01BDDFE8CF68E7E4
:1012A00072E0CE01B8DFE3CF60E872E0CE01B3DFD9
:1012B000DECFFC0180819181009711F00C94041223
:1012C00008958F929F92AF92BF92CF92DF92EF924A
:1012D000FF920F931F93CF93DF93CDB7DEB768973D
:1012E0000FB6F894DEBF0FBECDBF8C01FC01E088C5
:1012F000F188C484D58480849184A284B38460817D
:101300007181CE010D969BDFF80162817381CE0160
:10131000019695DFBE016F5F7F4FCE01079672DFAA
:101320006CE872E0CE01079610DFBE01635F7F4F6D
:1013300023DF6CE872E009DFB501A401ECDE6FE8A1
:1013400072E003DFB601F4DE6EE872E0FEDEB701A4
:10135000EFDEBC01CE01439655DFCE010796A9DF33
:10136000CE010196A6DFCE010D96A3DFBE016D5E14
:101370007F4F8CE793E0F8DCCE0143969ADF6896C6
:101380000FB6F894DEBF0FBECDBFDF91CF911F9196
:101390000F91FF90EF90DF90CF90BF90AF909F9014
:1013A0008F9008958ECF08950C940412089500979D
:1013B00009F0FACF08958CC708958F929F92AF924B
:1013C000BF92CF92DF92EF92FF920F931F93CF9332
:1013D000DF9361E972E08CE793E0ECDCC0E0D3E0FE
:1013E000ACA4B12C84E190E0E6DF4C016894CC24FD
:1013F000C1F8D12CE12CF12C8701E39430E020E0FE
:1014000045E050E062ED79E046DBC401DCDBC4017D
:1014100058DFACA4B12C84E190E0CDDF4C010F2E5D
:10142000F3E0CF2ED12CF02D12E0E12EF12C00E0D4
:1014300010E021E030E045E050E062ED79E02BDBA8
:10144000C401C1DBC4013DDFACA4B12C84E190E058
:10145000B2DF4C016894CC24C2F8D12C13E0E12E09
:10146000F12C00E010E023E030E045E050E062EDD8
:1014700079E011DBC401A7DBC40123DFACA4B12CEC
:1014800084E190E098DF4C01CC24C394D12C14E08B
:10149000E12EF12C00E010E022E030E046E050E0E8
:1014A00062ED79E0F8DAC4018EDBC4010ADFACA496
:1014B000B12C84E190E07FDF4C010F2EF5E0CF2EC0
:1014C000D12CF02D15E0E12EF12C00E010E024E00D
:1014D00030E045E050E062ED79E0DDDAC40173DB35
:1014E000C401EFDE6AEA72E08CE793E04DDC6CA5A4
:1014F0004AE050E08CE793E027DCDF91CF911F9129
:101500000F91FF90EF90DF90CF90BF90AF909F90A2
:101510008F900895EF92FF920F931F93CF93DF93D5
:1015200000D01F92CDB7DEB77C01F7D9843659F0D1
:101530000F900F900F900F90DF91CF911F910F910F
:10154000FF90EF900895C701ECD9C701EAD9182F91
:1015500000E01A3359F0FE01E00FF11D07FDFA9586
:1015600011830F5FC701DDD9182FF3CFCE0101968C
:10157000FED5082FC701D5D9482F4053550B42300F
:10158000510540F01A3059F01D3049F0C701C9D952
:10159000182FF8CF60ED680F802FB9D8F3CFC701AF
:1015A000BCD98A3009F0C4CFC701BBD9C1CFCF9312
:1015B000DF93EC01AFDFCE01EBD96E837F838887A9
:1015C0009987DF91CF910895CF93DF93EC014E87F8
:1015D0005F87688B798B1A8A1B8A1C8A1D8A8E8189
:1015E0009F81A885B9858A879B87AC87BD87CE01F7
:1015F000CFD96E837F8388879987CE018BDFDF9178
:10160000CF9108950F931F93CF93DF93EC0144EF95
:1016100051E060E070E08DE293E0D6DF42E050E020
:1016200060E070E08DE293E00FDA4AE050E060E0C5
:1016300070E08DE293E008DA85E6809344031BC0F6
:1016400060E08DE293E0D1D9811136C021E044EF12
:1016500051E060E070E08DE293E09CD94AE050E018
:1016600060E070E08DE293E0EFD96CE08DE293E012
:10167000D8DB8093440380914403833609F458C037
:10168000853661F7EDE2F3E082899389A489B58913
:101690000196A11DB11D828B938BA48BB58B4685C2
:1016A000578560897189452B462B472B49F6892B35
:1016B0008A2B8B2B99F6C4CF6CE08DE293E0FFDB95
:1016C0006AEB72E08CE793E05FDB4C815D816E81B9
:1016D0007F812AE030E08CE793E0EBDA6AEB72E09E
:1016E0008CE793E051DB488559856A857B852AE044
:1016F00030E08CE793E0DDDA6AEB72E08CE793E0B0
:1017000043DB6E857F854AE050E08CE793E009DBA0
:101710006AEB72E08CE793E037DB6C857D854AE00D
:1017200050E08CE793E0FDDA8DE293E053DB8ECF5F
:101730008DE293E03CDFDBD8AB01BC018C819D8165
:10174000AE81BF81088519852A853B85800F911F51
:10175000A21FB31F481759076A077B0738F08E8509
:101760009F852C853D85821793075CF48E859F8528
:1017700001969F878E8780E0DF91CF911F910F9117
:10178000089501969F878E87B2D86C837D838E8360
:101790009F8381E0F1CFCF93DF930EDAEC0144EF2A
:1017A00051E060E070E08DE293E00EDF42E050E057
:1017B00060E070E08DE293E047D94AE050E060E0FD
:1017C00070E08DE293E040D985E6809344031BC02E
:1017D00060E08DE293E009D9811135C021E044EF4A
:1017E00051E060E070E08DE293E0D4D84AE050E050
:1017F00060E070E08DE293E027D963E08DE293E052
:1018000010DB8093440380914403833621F18536B5
:1018100069F7EDE2F3E082899389A489B58901969D
:10182000A11DB11D828B938BA48BB58B46855785EB
:1018300060897189452B462B472B51F6892B8A2BC2
:101840008B2BA1F6C5CF63E08DE293E038DB8DE210
:1018500093E0C0DAC3CF8DE293E0A9DECE01D2DE01
:10186000811103C0DF91CF91089544EF51E060E012
:1018700070E08DE293E0A8DE42E050E060E070E0CE
:101880008DE293E0E1D84AE050E060E070E08DE264
:1018900093E0DAD885E6809344031BC060E08DE2D4
:1018A00093E0A3D8811135C021E044EF51E060E01E
:1018B00070E08DE293E06ED84AE050E060E070E0C6
:1018C0008DE293E0C1D864E08DE293E0AADA8093E0
:1018D000440380914403833621F1853669F7EDE2B4
:1018E000F3E082899389A489B5890196A11DB11D70
:1018F000828B938BA48BB58B4685578560897189C4
:10190000452B462B472B51F6892B8A2B8B2BA1F687
:10191000C5CF64E08DE293E0D2DA8DE293E05ADA4B
:10192000C3CF8DE293E043DE44EF51E060E070E02E
:101930008DE293E049DE42E050E060E070E08DE24D
:1019400093E082D84AE050E060E070E08DE293E0FE
:101950007BD885E6809344031BC060E08DE293E072
:1019600044D8811135C021E044EF51E060E070E0DF
:101970008DE293E00FD84AE050E060E070E08DE245
:1019800093E062D865E08DE293E04BDA8093440304
:1019900080914403833621F1853669F7EDE2F3E067
:1019A00082899389A489B5890196A11DB11D828B75
:1019B000938BA48BB58B4685578560897189452BA0
:1019C000462B472B51F6892B8A2B8B2BA1F6C5CFA3
:1019D00065E08DE293E073DA8DE293E0FBD9C3CF4B
:1019E0008DE293E0E4DD60912C0370E0CE014FD8EE
:1019F00044EF51E060E070E08DE293E0E5DD42E02D
:101A000050E060E070E08DE293E01ED84AE050E0E4
:101A100060E070E08DE293E017D885E680934403A0
:101A20001EC060E08DE293E00E94F504811137C092
:101A300021E044EF51E060E070E08DE293E00E942D
:101A4000CA044AE050E060E070E08DE293E00E945A
:101A5000240566E08DE293E0E4D98093440380910D
:101A60004403833621F1853661F7EDE2F3E08289A4
:101A70009389A489B5890196A11DB11D828B938B91
:101A8000A48BB58B4685578560897189452B462B7C
:101A9000472B39F6892B8A2B8B2B99F6C2CF66E020
:101AA0008DE293E00CDA8DE293E094D9C1CF8DE220
:101AB00093E07DDDCE010E943C05882309F4D2CE5F
:101AC00044EF51E060E070E08DE293E07DDD42E0C4
:101AD00050E060E070E08DE293E00E9424054AE06F
:101AE00050E060E070E08DE293E00E94240585E61E
:101AF000809344031EC060E08DE293E00E94F504F1
:101B0000811137C021E044EF51E060E070E08DE2E8
:101B100093E00E94CA044AE050E060E070E08DE289
:101B200093E00E94240567E08DE293E07AD98093E8
:101B3000440380914403833621F1853661F7EDE259
:101B4000F3E082899389A489B5890196A11DB11D0D
:101B5000828B938BA48BB58B468557856089718961
:101B6000452B462B472B39F6892B8A2B8B2B99F645
:101B7000C2CF67E08DE293E0A2D98DE293E02AD94B
:101B8000C1CF8DE293E013DD13D844EF51E060E064
:101B900070E08DE293E018DD42E050E060E070E03C
:101BA0008DE293E00E9424054AE050E060E070E09E
:101BB0008DE293E00E94240585E6809344031EC0D5
:101BC00060E08DE293E00E94F504811137C021E0CE
:101BD00044EF51E060E070E08DE293E00E94CA04BF
:101BE0004AE050E060E070E08DE293E00E9424055E
:101BF00068E08DE293E015D980934403809144031B
:101C0000833621F1853661F7EDE2F3E0828993892D
:101C1000A489B5890196A11DB11D828B938BA48BDC
:101C2000B58B4685578560897189452B462B472B97
:101C300039F6892B8A2B8B2B99F6C2CF68E08DE27F
:101C400093E03DD98DE293E0C5D8C1CF8DE293E01A
:101C5000AEDCCE01ACDB44EF51E060E070E08DE241
:101C600093E0B2DC42E050E060E070E08DE293E0AF
:101C70000E9424054AE050E060E070E08DE293E0CD
:101C80000E94240585E6809344031EC060E08DE237
:101C900093E00E94F504811137C021E044EF51E048
:101CA00060E070E08DE293E00E94CA044AE050E0F8
:101CB00060E070E08DE293E00E94240569E08DE22F
:101CC00093E0AFD88093440380914403833621F19D
:101CD000853661F7EDE2F3E082899389A489B589BD
:101CE0000196A11DB11D828B938BA48BB58B46856C
:101CF000578560897189452B462B472B39F6892BEF
:101D00008A2B8B2B99F6C2CF69E08DE293E0D7D86E
:101D10008DE293E05FD8C1CF8DE293E048DCA2CDA5
:101D2000CF93DF93CDB7DEB764970FB6F894DEBFDD
:101D30000FBECDBF6CEB72E08CE793E03BD84CC09C
:101D400060E08DE293E00E94F504811137C021E04C
:101D500044EF51E060E070E08DE293E00E94CA043D
:101D60004AE050E060E070E08DE293E00E942405DC
:101D700062E08DE293E055D8809344038091440360
:101D8000833621F1853661F7EDE2F3E082899389AC
:101D9000A489B5890196A11DB11D828B938BA48B5B
:101DA000B58B4685578560897189452B462B472B16
:101DB00039F6892B8A2B8B2B99F6C2CF62E08DE204
:101DC00093E07DD88DE293E005D8C1CF8DE293E01A
:101DD000EEDBCE010196DFDC0E94D1058823D9F02D
:101DE00044EF51E060E070E08DE293E0EDDB42E033
:101DF00050E060E070E08DE293E00E9424054AE04C
:101E000050E060E070E08DE293E00E94240585E6FA
:101E100080934403B3CF64960FB6F894DEBF0FBE31
:101E2000CDBFDF91CF91089548EB5BE060E070E0BB
:101E30008DE293E00E94270540E052EC61E070E003
:101E40008DE293E00E94950461E08DE293E00E94B0
:101E5000F504811124C041E060E08DE293E015D8E3
:101E600061E08DE293E00E94F504811127C026E035
:101E700040E052EC61E070E08CE793E00E94E60104
:101E80006EEE72E08CE793E00E94DA0664E670E0A2
:101E900080E090E00E94410490DA42CF089566ED20
:101EA00072E08CE793E00E94C4064AE050E060E0F4
:101EB00070E08DE293E00E942405CDCF67EE72E0E2
:101EC0008CE793E00E94C406D2CFCF92DF92EF92CC
:101ED000FF920F931F930E947704672B682B692B47
:101EE00039F40E947704623071058105910570F123
:101EF0008DE293E00E94C8040091FC021091FD0263
:101F00002091FE023091FF0260177107820793074C
:101F100040F46093FC027093FD028093FE02909364
:101F2000FF020091FC021091FD022091FE0230910F
:101F3000FF026B017C01C01AD10AE20AF30A970181
:101F400086010A3F11052105310538F41F910F91D3
:101F5000FF90EF90DF90CF9008956093FC02709314
:101F6000FD028093FE029093FF0244EF51E060E097
:101F700070E08DE293E028DB61E08DE293E00E9467
:101F8000F50481110CC042E050E060E070E08DE2A9
:101F900093E00E9424058DE293E009DBD7CF61E056
:101FA0008DE293E00E945F076AEB72E08CE793E0BA
:101FB0000E94C4060E947704AB01BC012AE030E015
:101FC0008CE793E00E9444068DE293E00E94EA06CB
:101FD000DACF0E94B90328DF78DF0E94D502FCCF58
:101FE0001F920F920FB60F9211240BB60F922F93E0
:101FF0003F934F935F936F937F938F939F93AF9391
:10200000BF93EF93FF938CE793E00E944802FF9108
:10201000EF91BF91AF919F918F917F916F915F9160
:102020004F913F912F910F900BBE0F900FBE0F90CD
:102030001F9018951F920F920FB60F9211240BB696
:102040000F922F938F939F93AF93BF93EF93FF9331
:10205000E0918C03F0918D03808182FD14C0ECE748
:10206000F3E0A689B7892C91818D8F5F8F73928D54
:10207000891771F0DF01E18DF0E0E458FC4F258F06
:1020800059968C9305C0E0919203F091930380815F
:10209000FF91EF91BF91AF919F918F912F910F90F1
:1020A0000BBE0F900FBE0F901F9018951F920F92AE
:1020B0000FB60F9211240F931F932F933F934F93BB
:1020C0005F936F937F938F939F93AF93BF93009191
:1020D00074031091750320917603309177039091EA
:1020E0007303B901A8014F5F5F4F6F4F7F4F83E0CC
:1020F000890F8D3740F086E8890FB901A8014E5F3E
:102100005F4F6F4F7F4F80937303409374035093DF
:1021100075036093760370937703809178039091B1
:102120007903A0917A03B0917B030196A11DB11DA3
:102130008093780390937903A0937A03B0937B0301
:10214000BF91AF919F918F917F916F915F914F91CF
:102150003F912F911F910F910F900FBE0F901F90E5
:1021600018950E9464010E9483040C946D05FC0183
:1021700088279927E89421912032E9F3293010F03B
:102180002E30C8F32B3239F02D3231F4689403C06D
:1021900023D0820F911D219120532A30C8F31EF4C1
:1021A000909581959F4F0895BB274A3031F499232C
:1021B00022F4BDE2909581959F4F38C0BB272A300D
:1021C00051F4992342F4BDE2909580957095619504
:1021D0007F4F8F4F9F4F09C07AE0979F902D879F29
:1021E000802D910D11240895BB27FA01A62F6217A7
:1021F000710581059105330B30FB66F0AA27660F48
:10220000771F881F991FAA1FA21710F0A21B6395A2
:102210003850A9F7A05DAA3308F0A95DA19336F75D
:10222000B111B1931082CA0119C0BB27FB01552718
:10223000AA27880F991FAA1FA41710F0A41B839523
:102240005051B9F7A05DAA3308F0A95DA19300979A
:1022500079F7B111B1931192CB0100C0DC01FC01FF
:10226000672F71917723E1F7329704C07C916D93CA
:1022700070836291AE17BF07C8F30895A1E21A2ECA
:10228000AA1BBB1BFD010DC0AA1FBB1FEE1FFF1F1A
:10229000A217B307E407F50720F0A21BB30BE40B6A
:1022A000F50B661F771F881F991F1A9469F76095B1
:1022B0007095809590959B01AC01BD01CF0108956B
:1022C000EE0FFF1F881F8BBF0790F691E02D19942A
:1022D0000F931F93CF93DF938230910510F482E028
:1022E00090E0E0911B04F0911C0430E020E0B0E0AD
:1022F000A0E0309799F42115310509F44AC0281B54
:10230000390B24303105D8F58A819B81611571051F
:1023100089F1FB0193838283FE0111C040815181C9
:102320000281138148175907E0F04817590799F4BB
:10233000109761F012960C93129713961C93329695
:10234000CF01DF91CF911F910F91089500931B044E
:1023500010931C04F4CF2115310551F04217530797
:1023600038F0A901DB019A01BD01DF01F801C1CFFD
:10237000EF01F9CF90931C0480931B04CDCFFE0195
:10238000E20FF31F819391932250310939832883FF
:10239000D7CF2091190430911A04232B41F42091B6
:1023A00002023091030230931A0420931904209101
:1023B0000002309101022115310541F42DB73EB7DD
:1023C0004091040250910502241B350BE091190441
:1023D000F0911A04E217F307A0F42E1B3F0B281705
:1023E000390778F0AC014E5F5F4F2417350748F08E
:1023F0004E0F5F1F50931A044093190481939193D9
:102400009FCFF0E0E0E09CCFCF93DF930097E9F01F
:10241000FC01329713821282A0911B04B0911C041C
:10242000ED0130E020E01097A1F420813181820F8E
:10243000931F2091190430911A042817390709F0C5
:1024400061C0F0931A04E0931904DF91CF910895CD
:10245000EA01CE17DF07E8F54A815B819E0141154D
:102460005105B1F7E901FB83EA8349915991C40F02
:10247000D51FEC17FD0761F4808191810296840FCE
:10248000951FE90199838883828193819B838A8345
:10249000F0E0E0E012968D919C9113970097B9F5CA
:1024A0002D913C911197CD010296820F931F20919F
:1024B000190430911A042817390739F6309751F565
:1024C00010921C0410921B04B0931A04A0931904D8
:1024D000BCCFD383C28340815181840F951FC8171D
:1024E000D90761F44E5F5F4F88819981480F591F6A
:1024F000518340838A819B81938382832115310597
:1025000009F0B0CFF0931C04E0931B049ECFFD01B3
:10251000DC01C0CF13821282D7CF4F925F926F92AD
:102520007F928F929F92AF92BF92CF92DF92EF9263
:10253000FF920F931F93CF93DF938C01009791F439
:10254000CB01DF91CF911F910F91FF90EF90DF9022
:10255000CF90BF90AF909F908F907F906F905F9043
:102560004F90B6CEFC01E60FF71F9C0122503109B7
:10257000E217F30708F4AAC0D901CD91DC911197B5
:10258000C617D70718F1C530D10570F0CE010497F2
:102590008617970748F0C61BD70B2297C193D19394
:1025A0006D937C93CF0130DFC801DF91CF911F91F4
:1025B0000F91FF90EF90DF90CF90BF90AF909F90E2
:1025C0008F907F906F905F904F9008955B01AC1A51
:1025D000BD0A4C018C0E9D1EA0911B04B0911C04E1
:1025E000512C412CF12CE12C109731F580911904DC
:1025F00090911A048815990509F05CC04616570693
:1026000008F058C08091000290910102009741F4B7
:102610008DB79EB74091040250910502841B950B23
:10262000E817F90708F052C0F0931A04E093190470
:10263000F90171836083B8CF8D919C9111971296A7
:102640006C90129713967C901397A815B90559F5BD
:102650006C0142E0C40ED11CCA14DB0420F1AC01B1
:102660004A195B09DA011296159780F0628273822B
:1026700051834083D9016D937C93E114F10471F08F
:10268000D7011396FC93EE9312978ECF22968C0F60
:102690009D1FF90191838083F301EFCFF0931C0418
:1026A000E0931B0481CF4816590608F42C017D01E4
:1026B000D3019ACFCB010CDE7C01009739F0AE013B
:1026C000B80107D0C801A0DE87016ECF10E000E09E
:1026D0006BCFFB01DC0102C001900D9241505040D4
:1026E000D8F70895FB01DC0101900D920020E1F77D
:0626F0000895F894FFCFED
:1026F60000001D048000000000006A0233019D01F5
:10270600B302D001AE01C2010D0A005F564D44501E
:102716004500564D4450435F005F564D44504300BC
:10272600564D4450455F003A323A00436865636B44
:10273600496E54656D7000436865636B4D696E53F1
:10274600656E736F727300436865636B53617046A1
:102756006C6F617400436865636B5361704C696E9E
:10276600657300566F69640050757368202D2000EC
:102776005072696F72697479202D20002D00202F08
:10278600004275696C64696E6720746573742066AF
:1027960069666F2071756575650042756666657256
:1027A60020436F756E74202D20007C00436F6E737E
:1027B600756D696E672074657374206669666F202F
:1027C600717565756500564D4450565F317C315FB5
:1027D600564D4450560A00564D4450525F005465BB
:0C27E60073742053746172746564000009
:00000001FF
