:10000000E8C0000017C1000015C1000013C10000C6
:1000100011C100000FC100000DC100000BC10000A4
:1000200009C1000007C1000005C1000003C10000B4
:1000300001C10000FFC00000FDC00000FBC00000C7
:10004000F9C00000F7C00000F5C00000F3C00000D8
:10005000F1C00000EFC00000EDC000000C94BF0B29
:10006000E9C000000C94890B0C945F0BE3C0000006
:10007000E1C00000DFC00000DDC00000DBC0000008
:10008000D9C00000D7C00000D5C00000D3C0000018
:10009000D1C00000CFC00000CDC000000C94090CFE
:1000A000C9C00000C7C00000C5C00000C3C0000038
:1000B000C1C00000BFC00000BDC00000BBC0000048
:1000C000B9C00000B7C00000B5C00000B3C0000058
:1000D000B1C00000AFC00000ADC00000ABC0000068
:1000E000A9C0000000002200250028002B002E00DF
:1000F0003100340002010000050108010B01050573
:100100000505070508080808020202020A0A08088D
:1001100004040404010101010101010103030303BB
:1001200003030303040707070C0C0C0C0C0C0C0C4A
:100130000202020206060606060606060B0B0B0B5B
:100140000B0B0B0B01021020200808102040102080
:10015000408002010201080402010102040810208B
:100160004080804020100804020180040201804089
:1001700020100804020108040201010204081020F2
:100180004080010204081020408000000A0B020990
:100190000C0D0E0807030401000000000000000021
:1001A000000000000000000000000000000000004F
:1001B000000000000000121110000000000000000C
:1001C000000000000000000000000000000000002F
:1001D000280D11241FBECFEFD1E2DEBFCDBF00E05E
:1001E0000CBF12E0A0E0B2E0EEEDFDE100E00BBFDD
:1001F00002C007900D92AE3DB107D9F726E0AEEDF3
:10020000B2E001C01D92A63AB207E1F710E0C9EED4
:10021000D0E000E006C021970109802FFE010E9476
:10022000E50EC83ED10780E00807A9F70E948A0DB5
:100230000C94ED0EE5CEEEE5F5E0A089B18982E003
:100240008C93A485B5851C92A685B78580E18C9397
:10025000108EA489B58986E08C93A289B3898C918C
:1002600080618C93A289B3898C9188608C93A289D8
:10027000B3898C9180688C930288F389E02D80810A
:100280008F7D8083089520919006309191062A30C9
:100290003105FCF42F5F3F4F309391062093900679
:1002A0002230310554F020918E0630918F062F5F59
:1002B0003F4F30938F0620938E06E0918E06F0918B
:1002C0008F06EE0FFF1FEE56F94F9183808381E07A
:1002D000089580E0089520919006309191062A308B
:1002E00031051CF060E0862F08952F5F3F4F30935B
:1002F0009106209390062230310554F020918E060D
:1003000030918F062F5F3F4F30938F0620938E06DC
:1003100040918E0650918F0620918C0630918D066B
:10032000FA01EE0FFF1FE457F94F329724173507F4
:100330003CF441505109A681B781B187A087F5CF20
:10034000220F331FF901EE56F94F91838083CBCFF3
:10035000AF92BF92CF92DF92EF92FF920F931F93D3
:10036000CF93DF936C017B018B01040F151FEB0111
:100370005E01AE18BF08C017D10759F06991D601C8
:10038000ED91FC910190F081E02DC6011995892B2A
:1003900079F7C501DF91CF911F910F91FF90EF90F9
:1003A000DF90CF90BF90AF9008950895FC01538DDA
:1003B000448D252F30E0842F90E0821B930B54173F
:1003C00010F0CF96089501970895FC01918D828DCC
:1003D000981761F0A28DAE0FBF2FB11D5D968C9165
:1003E000928D9F5F9F73928F90E008958FEF9FEFA4
:1003F0000895FC01918D828D981731F0828DE80F60
:10040000F11D858D90E008958FEF9FEF0895FC0119
:10041000918D228D892F90E0805C9F4F821B9109E6
:100420008F73992708958EE595E0F1DF21E0892B00
:1004300009F420E0822F0895FC01A48DA80FB92FA4
:10044000B11DA35ABF4F2C91848D90E001968F73FC
:100450009927848FA689B7892C93A089B1898C911B
:10046000837080648C93938D848D981306C002886A
:10047000F389E02D80818F7D80830895EF92FF9234
:100480000F931F93CF93DF93EC0181E0888F9B8DB7
:100490008C8D98131AC0E889F989808185FF15C071
:1004A0009FB7F894EE89FF896083E889F989808194
:1004B0008370806480839FBF81E090E0DF91CF9163
:1004C0001F910F91FF90EF900895F62E0B8D10E085
:1004D0000F5F1F4F0F731127E02E8C8D8E110BC0F5
:1004E0000FB607FCFACFE889F989808185FFF5CF3F
:1004F000CE01A2DFF2CFEB8DEC0FFD2FF11DE35A01
:10050000FF4FF0829FB7F8940B8FEA89FB898081B7
:100510008062D0CFCF93DF93EC01888D8823B1F038
:10052000AA89BB89E889F9898C9185FD03C08081FE
:1005300086FD0CC00FB607FCF7CF8C9185FFF2CF7C
:10054000808185FFEDCFCE0177DFEACFDF91CF91BC
:10055000089580E090E0892B21F065DF81110E94F1
:10056000000080E090E0892B49F080E090E0892B4A
:1005700029F00E94000081110E94000080E090E0BC
:10058000892B49F080E090E0892B29F00E9400003F
:1005900081110E94000080E090E0892B49F080E00A
:1005A00090E0892B29F00E94000081110C9400003A
:1005B0000895282F30E0F901E657FE4F9491F90194
:1005C000EC5BFE4F449122503F4FF90124912223CE
:1005D00009F435C0992311F191509231F8F4E92FC3
:1005E000F0E08827E950FD4F8F4F0C94E50E28036B
:1005F0002C030903200324030E032F0335033903BF
:100600003F03430347034D0351030E0355035B03AD
:100610005F03809180008F7780938000E22FF0E06D
:10062000EE0FFF1FEC51FF4FA591B4918FB7F894D7
:10063000EC91611148C040954E234C938FBF0895B3
:10064000809180008F7DE8CF80918000877FE4CF0C
:1006500084B58F7784BDE2CF84B58F7DFBCF809149
:10066000B0008F778093B000D9CF8091B0008F7D9C
:10067000F9CF809190008F7780939000CFCF8091B9
:1006800090008F7DF9CF80919000877FF5CF80918A
:10069000A0008F778093A000C1CF8091A0008F7DB4
:1006A000F9CF8091A000877FF5CF809120018F77CF
:1006B00080932001B3CF809120018F7DF9CF80916D
:1006C0002001877FF5CF4E2BB8CF3FB7F8948091AC
:1006D0005A0590915B05A0915C05B0915D0526B52A
:1006E000A89B05C02F3F19F00196A11DB11D3FBF6A
:1006F000BA2FA92F982F8827BC01CD01620F711D39
:10070000811D911D42E0660F771F881F991F4A9532
:10071000D1F708958F929F92AF92BF92CF92DF92BE
:10072000EF92FF924B015C01D0DF6B017C01CDDFCA
:100730006C197D098E099F09683E734081059105FA
:10074000B0F321E0821A9108A108B10888EEC80E22
:1007500083E0D81EE11CF11C81149104A104B104B2
:1007600031F7FF90EF90DF90CF90BF90AF909F90C8
:100770008F9008952FB7F8946091560570915705A2
:1007800080915805909159052FBF089520910B0530
:10079000260F3327331F21323105ECF420912F052A
:1007A000FC0190E080E0243069F082E00895A0919F
:1007B0000B052191AC0145515B4FA40FB52FB11D25
:1007C0002C930196861798F380910B05680F609320
:1007D0000B0580E0089581E008958FEF9FEF089565
:1007E0008FEF9FEF08958091E40490E091958195BB
:1007F00091090895CF93DF93CB01EA01642FC6DFFF
:10080000CE01DF91CF910895CF93DF931F92CDB7A3
:10081000DEB7698361E0CE010196B8DF81E090E048
:100820000F90DF91CF9108952091DE02211109C030
:1008300021E02093DE0230914106209142063CBD2A
:100840002DBD60E0FC018481B4CE61E0FC018481B7
:10085000B0DE8091DE0281111092DE0208958EBD1D
:1008600000000DB407FEFDCF8EB508958FEFF7CFD2
:100870000F931F93CF93DF93EC017CDF8B01F6DFA7
:100880008F3F61F077DF601B710B6C177D07B8F34A
:1008900080E0DF91CF911F910F91089581E0F9CF12
:1008A000CF92DF92EF92FF920F931F93CF93DF933C
:1008B000EC01162F69017A018E81882379F08F81EE
:1008C00098859C012F5F3F4F38872F83823092405D
:1008D00010F4CCDFF4CFCE01B8DF1E82CE01A4DF4E
:1008E0008CE291E0C5DF812F8064B9DF08E110E080
:1008F000D701C601002E04C0B695A7959795879598
:100900000A94D2F7ACDF08501109083F8FEF18079F
:1009100079F78FEFA4DF10E0A9DF8A8787FF04C093
:100920001F3F11F01F5FF8CFDF91CF911F910F9103
:10093000FF90EF90DF90CF900895CF92DF92EF92EB
:10094000FF920F93CF93DF93EC01690182E1411590
:1009500051056105710591F08B85833039F089E08F
:10096000440F551F661F771F8A95D1F79A01AB0177
:1009700068E1CE0195DF882319F084E08D8326C0DD
:100980008EEF6DDF76018EEFD81AF70181917F012E
:1009900066DFEC14FD04C9F78FEF61DF8FEF5FDFD7
:1009A00065DF8A878F71853069F4011113C0CE012C
:1009B0004CDF81E0DF91CF910F91FF90EF90DF90BE
:1009C000CF90089581E18D83CE013FDFCE013DDFE1
:1009D00080E0F0CF88E592E04BDF811102C085E135
:1009E000CDCF20E030E0A9016DE0CE0159DF8823B2
:1009F00011F084E1C3CF3ADF8111FBCFD8CF0F9341
:100A00004091E0025091E1026091E2027091E302B4
:100A1000411551056105710581F0082F24EE32E082
:100A200090E080E08ADF882349F01092E002109283
:100A3000E1021092E2021092E30281E00F91089528
:100A40000F93CF93C82F8091DF02811105C0C1E0C1
:100A50008C2FCF910F910895409100025091010287
:100A600060910202709103020C2F24EE32E090E0BC
:100A700080E063DF811102C0C0E0EACFCC2339F30C
:100A800081E0BDDF8823C1F31092DF02E1CFAF9296
:100A9000BF92CF92DF92EF92FF921F93CF93DF939B
:100AA0006B017C01142F8091000290910102A091B2
:100AB0000202B09103028C159D05AE05BF0509F435
:100AC000A3C081E0BDDF8823D1F180910600882397
:100AD000A1F08091000090910100A0910200B091DE
:100AE0000300C816D906EA06FB0639F48091070010
:100AF00090910800892B09F449C0C0920000D0925F
:100B00000100E0920200F092030080910B00A70127
:100B10009601833039F099E0220F331F441F551F8F
:100B20009A95D1F761E190E080E0BADE882389F000
:100B300083E08093050090E080E087DE80E0DF9135
:100B4000CF911F91FF90EF90DF90CF90BF90AF902B
:100B5000089510DEEB018ADE80930A008F3F69F46E
:100B600009DE6C1B7D0B6D327140A8F38FE0809322
:100B7000050090E080E069DEDECF8E3FB1F5109297
:100B800008001092070081E080930600C4EED2E0D6
:100B900084EEA82E84E0B82E69DE8993AC16BD06DB
:100BA000D9F780910700909108009E5F909308000C
:100BB0008093070020910900222319F081159240AB
:100BC000D8F0809106008823B9F0809107009091B9
:100BD00008009C012F5F3F4F3093080020930700CF
:100BE0008230924020F442DEF0CF8DE0C0CF90E022
:100BF00080E02BDE10920600C0920002D09201022B
:100C0000E0920202F09203024091DF02412B4093F6
:100C1000DF0281E094CF4F925F926F927F928F922A
:100C20009F92AF92BF92CF92DF92EF92FF920F937B
:100C30001F93CF93DF93EC0142305105610571059D
:100C400090F480E0DF91CF911F910F91FF90EF9092
:100C5000DF90CF90BF90AF909F908F907F906F90DC
:100C60005F904F90089589859A85AB85BC850196E4
:100C7000A11DB11D84179507A607B70710F3CB88F0
:100C8000DC88ED88FE888F89803109F042C0BB275F
:100C9000A72F962F852F480159012A013B01C80E25
:100CA000D91EEA1EFB1E8091000290910102A091C4
:100CB0000202B0910302C816D906EA06FB0699F5AE
:100CC0008F898031B9F5B301A201552766277727AF
:100CD000440F551F4C515D4FFA01918280828091E3
:100CE000DF0281608093DF028A89823080F08D810B
:100CF0009E81AF81B8858C0D9D1DAE1DBF1D80935B
:100D0000E0029093E102A093E202B093E30281E05B
:100D100099CFDB01CA01E7E0B695A795979587952E
:100D2000EA95D1F7B8CF40E0C701B601B0DE811136
:100D3000C7CF87CFB301A2014F7755276627772703
:100D4000440F551F440F551F4C515D4FFA018082CF
:100D50009182A282B382C3CF8F929F92AF92BF92B1
:100D6000CF92DF92EF92FF920F931F93CF93DF9377
:100D7000FC0181859285A385B4850196A11DB11DD5
:100D800084179507A607B70770F480E0DF91CF912D
:100D90001F910F91FF90EF90DF90CF90BF90AF9099
:100DA0009F908F90089583889488A588B6888789B6
:100DB000803189F5BB27A72F962F852FE9016A017E
:100DC0007B018F01BC01CD01680D791D8A1D9B1D22
:100DD0008090000290900102A0900202B090030265
:100DE00086169706A806B90601F5F80187898031AD
:100DF00009F5DD24EE24FF24F601EE0FFF1FEC5170
:100E0000FD4F80819181B0E0A0E088839983AA831F
:100E1000BB8381E0BBCFDB01CA01C7E0B695A795D4
:100E200097958795CA95D1F7C9CF40E030DE8111FB
:100E3000DCCFABCFE894C7F8DD24EE24FF24F60125
:100E4000EE0FFF1FEE0FFF1FEC51FD4F80819181D0
:100E5000A281B381BF70D9CF8F929F92AF92BF9280
:100E6000CF92DF92EF92FF920F931F93CF93DF9376
:100E7000EC018D8181110EC080E0DF91CF911F9137
:100E80000F91FF90EF90DF90CF90BF90AF909F9029
:100E90008F9008950B891C892D893E8904171507A9
:100EA0002607370748F34A015B01823031F48A860E
:100EB0009B86AC86BD8681E0E0CF81149104A104BD
:100EC000B10449F41E821F82188619861A861B8671
:100ED0001C861D86F0CF0A851B852C853D85EB8DF4
:100EE000FC8D858590E00996B901A8014150510912
:100EF00061097109082E04C0769567955795479545
:100F00000A94D2F775016401E1E0CE1AD108E10834
:100F1000F10804C0F694E794D794C7948A95D2F761
:100F2000C416D506E606F70620F0012B022B032B8C
:100F300009F58F89988DA98DBA8D8E839F83A88797
:100F4000B9878E010A5F1F4FC114D104E104F10477
:100F500009F4ADCF4E815F816885798598018B8DCD
:100F60009C8DFADE91E0C91AD108E108F1088111DF
:100F7000EBCF82CFC41AD50AE60AF70AE2CF3F9236
:100F80004F925F926F927F928F929F92AF92BF9299
:100F9000CF92DF92EF92FF920F931F93CF93DF9345
:100FA000CDB7DEB72C970FB6F894DEBF0FBECDBF1E
:100FB0005C01DC015B968D909C905C9716964D9041
:100FC0005D906D907C9019974114510461047104F7
:100FD00009F467C0BFEF4B1A5B0A6B0A7B0A312C1E
:100FE000F40181859285A385B4859C01AD012F5FB5
:100FF0003F4F4F4F5F4F29873A874B875C8773017D
:1010000062011D821E821F821886F40181859285ED
:10101000A385B4852D813E814F81588528173907D6
:101020004A075B0708F054C089859A85AB85BC8563
:101030008C159D05AE05BF0550F482E0C82ED12C5D
:10104000E12CF12C92E0492E512C612C712C9E0147
:101050002F5F3F4FB701A601C4017EDE8823C1F197
:1010600089819A81AB81BC81892B8A2B8B2B09F1D9
:10107000260137019FEF491A590A690A790A2D8119
:101080003E814F8158852F5F3F4F4F4F5F4F2D83DC
:101090003E834F8358873FEFC31AD30AE30AF30A0C
:1010A000B4CFF40140805180628073803324339444
:1010B00097CFC414D504E604F70409F70FEF1FEF28
:1010C0002FEF3FE0B701A601C401A5DD811119C0D2
:1010D00080E02C960FB6F894DEBF0FBECDBFDF9137
:1010E000CF911F910F91FF90EF90DF90CF90BF9025
:1010F000AF909F908F907F906F905F904F903F90B8
:101100000895D50116964D915D916D917C91199739
:10111000411551056105710531F097018601C40142
:101120007ADD8823A9F2D5011696CD92DD92ED9253
:10113000FC921997332051F0D701C6010196A11DE9
:10114000B11DF40180839183A283B383F501878964
:10115000908DA18DB28D892B8A2B8B2B39F48481B4
:10116000C78AD08EE18EF28E80688483F5018481F7
:101170008062848381E0ADCF1F93CF93DF93EC0136
:10118000162F8C8187FF29C06E857F858889998974
:1011900041E07DDC882359F1EA8980E2E89FF00193
:1011A0001124EC51FD4F309711F18D81823040F4C4
:1011B0008B899C89AD89BE89848F958FA68FB78FC7
:1011C0008F89988D938F828F8F89988DA98DBA8DF5
:1011D000B58BA48B8C818F778C83111103C08C818C
:1011E0008F7E8C83812FDF91CF911F9129CC80E05E
:1011F000DF91CF911F9108951F93CF93DF93EC015F
:101200008D81813031F090E080E0DF91CF911F91AE
:1012100008958C8181FFF7CF82FD17C090E080E0B8
:1012200003DB24DB182F90E080E00FDB1F3F59F732
:101230008C8185FF1CC08D81882319F060E0CE0170
:101240009BDF8C818F7D8C83DECF4B895C896D89A0
:101250007E898A859B85AC85BD8584179507A60701
:10126000B707E1F2CE01F8DD8111D8CFCCCF4091A4
:10127000E0025091E1026091E2027091E302452B9D
:10128000462B472B19F080E0BADBBDCF80618C8301
:101290002A853B85317080E092E0821B930BB5CFAD
:1012A0009F92AF92BF92CF92DF92EF92FF920F93F5
:1012B0001F93CF93DF9300D01F921F92CDB7DEB75D
:1012C0008C016D83DC0115968C911597813009F0A6
:1012D000B7C014968C9181FFB3C082FD9EC0D80127
:1012E0005B96ED91FC915C971A96AD90BD90CD9078
:1012F000DC901D9794809A94B601A50189E07695BB
:101300006795579547958A95D1F79422B1E0BB220E
:10131000992009F49DC0D8015B96ED91FC915C97F2
:101320001696CD90DD90ED90FC901997B2E0CB1A17
:10133000D108E108F108858504C0CC0CDD1CEE1C49
:10134000FF1C8A95D2F74685578560897189C40E3E
:10135000D51EE61EF71EC90CD11CE11CF11CA11400
:10136000B10409F004C1F80142855385648575858F
:1013700083899489A589B689481759076A077B0725
:1013800008F4F5C081E05CDB882309F459C0C09201
:101390000002D0920102E0920202F09203028091D8
:1013A000DF0281608093DF02F501EC51FD4F8D81FA
:1013B0008083F80182859385A485B5850196A11D5A
:1013C000B11D82879387A487B5874389548965892E
:1013D0007689481759076A077B0738F42481838B7D
:1013E000948BA58BB68B20682483D80114968C919E
:1013F00083FD9BC081E090E00F900F900F900F90C5
:101400000F90DF91CF911F910F91FF90EF90DF90A0
:10141000CF90BF90AF909F900895F8014389548971
:101420006589768982859385A485B585481759078E
:101430006A077B0709F453CFC8010EDD81114FCF36
:1014400081E090E0D80113969C938E93129747C049
:10145000D80116964D915D916D917C911997A114CB
:10146000B10409F06DC0411551056105710581F5A3
:1014700057968D919D910D90BC91A02D0097A1053F
:10148000B10509F04CC0C8017ADD8823C9F2D80142
:101490005B96ED91FC915C971696CD90DD90ED906A
:1014A000FC901997B2E0CB1AD108E108F1088585C4
:1014B00004C0CC0CDD1CEE1CFF1C8A95D2F74685BF
:1014C000578560897189C40ED51EE61EF71E4BCF65
:1014D0009E012F5F3F4FCF013FDC811103C090E0A1
:1014E00080E08ACF89819A81AB81BC81F801238D0C
:1014F000348DF901278948EF5FEF60E070E020311B
:1015000021F048EF5FEF6FEF7FE084179507A607A4
:10151000B70728F0C80133DD8111FDCE91CFF80166
:1015200086839783A087B187F6CEF80185818823CB
:1015300009F486CF61E0C8011FDE81115BCF80CF47
:101540006A017B01B2E0CB1AD108E108F108858578
:1015500004C0CC0CDD1CEE1CFF1C8A95D2F746851E
:10156000578560897189C40ED51EE61EF71E41E0BD
:10157000C701B6018CDA811117CF62CF089590E0D0
:1015800080E00895FC0101900020E9F73197AF0158
:10159000481B590BBC018EE595E00C94A801CF9334
:1015A000DF93F0DFEC0182E292E0ECDF8C0F9D1F15
:1015B000DF91CF91089585E292E0F1CF80E392E050
:1015C000EECF8BE392E0EBCF8CE492E0E8CF8DE5B9
:1015D00092E0E5CF1F93CF93DF9385ED8093BC001E
:1015E0008091E7049091E804A091E904B091EA04A5
:1015F0000796A11DB11D23E0B695A79597958795F0
:101600002A95D1F72091BC0024FD03C010922F052C
:1016100052C04091E7045091E8046091E904709150
:10162000EA04452B462B472B69F30097A105B1052A
:1016300041F025E32A95F1F700000197A109B109CE
:10164000E1CF8091E604C1E0C093E504882399F1DD
:10165000D091B8001091BA008091BC008A7B809331
:10166000BC0060E084E10E94D90260E085E10E9454
:10167000D90210922F05C09331051092300561E018
:1016800084E10E94D90261E085E10E94D902809143
:10169000B9008E7F8093B9008091B9008D7F8093CF
:1016A000B90088E48093B80085E48093BC0010936F
:1016B000BA00D093B800DF91CF911F9108951F9287
:1016C0000F920FB60F9211240BB60F922F933F93E8
:1016D0004F935F936F937F938F939F93AF93BF933A
:1016E000EF93FF938EE595E00E941C02FF91EF912E
:1016F000BF91AF919F918F917F916F915F914F912A
:101700003F912F910F900BBE0F900FBE0F901F9027
:1017100018951F920F920FB60F9211240BB60F92CD
:101720002F938F939F93EF93FF93E0916E05F0912A
:101730006F058081E0917405F091750582FD1DC0F3
:101740009081809177058F5F8F7320917805821744
:1017500041F0E0917705F0E0E25AFA4F958F8093DF
:101760007705FF91EF919F918F912F910F900BBE75
:101770000F900FBE0F901F9018958081F2CF1F928F
:101780000F920FB60F9211242F933F938F939F9335
:10179000AF93BF938091560590915705A09158053E
:1017A000B09159053091550523E0230F2D3758F599
:1017B0000196A11DB11D2093550580935605909368
:1017C0005705A0935805B093590580915A059091FB
:1017D0005B05A0915C05B0915D050196A11DB11D51
:1017E00080935A0590935B05A0935C05B0935D05CB
:1017F000BF91AF919F918F913F912F910F900FBE0D
:101800000F901F90189526E8230F0296A11DB11D79
:10181000D2CF1F920F920FB60F9211240BB60F92D8
:101820002F933F934F935F936F937F938F939F93E8
:10183000AF93BF93EF93FF938091B900887F803679
:1018400009F44CC008F03FC0883209F4A6C028F55E
:10185000803109F49AC0C8F4882309F4F6C08830AE
:1018600009F493C0FF91EF91BF91AF919F918F9138
:101870007F916F915F914F913F912F910F900BBE90
:101880000F900FBE0F901F901895883109F485C0F6
:10189000803241F780932E0514C0803409F49AC039
:1018A00040F48033B9F38833E9F680932E0585EC54
:1018B000ADC0803509F482C0883509F493C08834FE
:1018C00089F688DECFCF883909F48AC038F58837A1
:1018D00029F050F4883611F0803721F683E08093A8
:1018E0002F0510922D0555C0883809F479C080392C
:1018F00019F0803809F0B6CF80912D05803208F0BC
:101900006FC0E0912D0581E08E0F80932D058091B1
:10191000BB00F0E0E35FFA4F80833BC0803B39F0CF
:10192000D0F4803A09F477C0883A09F09BCF84E07C
:1019300080932F0510920C0510920B05F0E0E0E06B
:10194000199580910B0581110FC081E080930B05E3
:101950001092EB0409C0803C09F4A9CF883C09F43B
:10196000A6CF883B09F07ECFE0910C0581E08E0F79
:1019700080930C05F0E0E551FB4F80818093BB0024
:1019800090910C0580910B0529C08091540580939E
:10199000BB0085EC8093BC0065CF9091530580918E
:1019A0005205981758F5E091530581E08E0F80930A
:1019B0005305F0E0EE5CFA4F8081E9CFE0915305EA
:1019C00081E08E0F809353058091BB00F0E0EE5CC8
:1019D000FA4F808390915305809152059817C8F271
:1019E00085E8D8CFE091530581E08E0F80935305B1
:1019F0008091BB00F0E0EE5CFA4F8083809131056E
:101A000081115FCF81E08093300584EA8093BC0030
:101A100010922F0527CF85EC8093BC0010922F05E4
:101A200080912D05803230F4E0912D05F0E0E35FE8
:101A3000FA4F108260912D0570E08DE095E0F0E0A6
:101A4000E0E0199510922D050DCF10922E0539CF9B
:101A5000EEE5F5E01382128288EE93E0A0E0B0E0BC
:101A600084839583A683B78388E092E09183808303
:101A700085EC90E09587848784EC90E09787868753
:101A800080EC90E0918B808B81EC90E0938B828B4B
:101A900082EC90E0958B848B86EC90E0978B868B24
:101AA000118E128E138E148EEBEFF5E016821782D4
:101AB000108611861286138614861586168617865A
:101AC000108A118A128A138A148A158AE1E4F6E0D0
:101AD00080E580831182E3E4F6E0158216821186A8
:101AE000138682E090E0A0E0B0E084879587A68727
:101AF000B78713A215A614A68AE192E093A782A73E
:101B000017A6ECE8F6E01182108213821282158289
:101B100014820895789484B5826084BD84B5816010
:101B200084BD85B5826085BD85B5816085BD8091A8
:101B30006E00816080936E00109281008091810020
:101B40008260809381008091810081608093810018
:101B5000809180008160809380008091B1008460DA
:101B60008093B1008091B00081608093B00080913B
:101B700091008260809391008091910081608093B8
:101B80009100809190008160809390008091A100ED
:101B900082608093A1008091A10081608093A10068
:101BA0008091A00081608093A000809121018260DB
:101BB0008093210180912101816080932101809196
:101BC000200181608093200180917A00846080935D
:101BD0007A0080917A00826080937A0080917A0006
:101BE000816080937A0080917A00806880937A0087
:101BF0001092C10010923D0610923E0610923F06D0
:101C0000109240061092FD051092FE051092FF05FD
:101C1000109200060E94BA036B017C014B015C012B
:101C200088EB880E8BE0981EA11CB11C0E94BA03A1
:101C30006C157D058E059F0528F086169706A8066B
:101C4000B906A0F768EE73E080E090E00E948A0396
:101C50000E941B010E94BA036093FD057093FE056C
:101C60008093FF059093000688E692E08BDC0E944B
:101C7000BA036B017C014B015C018AE0880E911C68
:101C8000A11CB11C0E94BA036C157D058E059F0531
:101C900028F086169706A806B906A0F781E080937B
:101CA00011060E94BA036093FD057093FE058093B0
:101CB000FF059093000689E792E064DC0E941B0117
:101CC00080E892E06CDC64E670E080E090E00E94E6
:101CD0008A038DE892E063DC8BED9AE00E94430179
:101CE00064E670E080E090E00E948A038AE992E076
:101CF00056DC8EED9AE00E94430164E670E080E0DD
:101D000090E00E948A0387EA92E049DC81EE9AE043
:101D10000E946B0189EB92E035DC64E670E080E0C4
:101D200090E00E948A038FEB92E039DC84EE9AE027
:101D30000E946B0189EB92E025DC64E670E080E0B4
:101D400090E00E948A0381ED92E029DC87EE9AE020
:101D50000E94430189EB92E015DC64E670E080E0CC
:101D600090E00E948A038091900690919106181647
:101D7000190654F50197909391068093900640912F
:101D80008E0650918F064150510950938F06409313
:101D90008E0620918C0630918D06D901AA0FBB1FAB
:101DA000AE56B94FED91FC911197892B59F024173C
:101DB000350744F42F5F3F4F8D919D9111969C9371
:101DC0008E93F5CF1995C9CFFFCFEE0FFF1F881F58
:0E1DD0008BBF0790F691E02D1994F894FFCF89
:101DDE00FFFFFFFF000000003E02A801D6018A02AD
:101DEE000702E501F901000000005009A801FC08F6
:101DFE00BE0A0D0A004342312063616C6C656400BB
:101E0E004342322063616C6C6564005072696F727C
:101E1E00697479312063616C6C6564005072696F0E
:101E2E0072697479322063616C6C6564004342366A
:101E3E002063616C6C656400564D4450565F317C76
:101E4E00315F564D4450560A00564D4450525F0075
:101E5E0054657374205374617274656400507573A5
:101E6E0068696E672043425F310050757368696E12
:101E7E00672043425F320050757368696E67205069
:101E8E0072696F726974793100486561643D005002
:101E9E00757368696E67205072696F7269747932F2
:0E1EAE000050757368696E672043425F36000E
:00000001FF
