:10000000E8C0000014C1000012C1000010C10000CF
:100010000EC100000CC100000AC1000008C10000B0
:1000200006C1000004C1000002C1000000C10000C0
:10003000FEC00000FCC00000FAC00000F8C00000D4
:10004000F6C00000F4C00000F2C00000F0C00000E4
:10005000EEC00000ECC00000EAC0000028C40000B0
:10006000E6C00000EEC30000C3C30000E0C0000013
:10007000DEC00000DCC00000DAC00000D8C0000014
:10008000D6C00000D4C00000D2C00000D0C0000024
:10009000CEC00000CCC00000CAC00000C8C0000034
:1000A000C6C00000C4C00000C2C00000C0C0000044
:1000B000BEC00000BCC00000BAC00000B8C0000054
:1000C000B6C00000B4C00000B2C00000B0C0000064
:1000D000AEC00000ACC00000AAC00000A8C0000074
:1000E000A6C0000000002200250028002B002E00E2
:1000F0003100340002010000050108010B01050573
:100100000505070508080808020202020A0A08088D
:1001100004040404010101010101010103030303BB
:1001200003030303040707070C0C0C0C0C0C0C0C4A
:100130000202020206060606060606060B0B0B0B5B
:100140000B0B0B0B01021020200808102040102080
:10015000408002010201080402010102040810208B
:100160004080804020100804020180040201804089
:1001700020100804020108040201010204081020F2
:100180004080010204081020408000000A0B020990
:100190000C0D0E0807030401000000000000000021
:1001A000000000000000000000000000000000004F
:1001B000000000000000121110000000000000000C
:1001C000000000000000000000000000000000002F
:1001D000A10411241FBECFEFD1E2DEBFCDBF00E0EE
:1001E0000CBF23E0AEE4B2E001C01D92AE33B20713
:1001F000E1F712E0A0E0B2E0EEEFFDE000E00BBFBF
:1002000002C007900D92AE34B107D9F710E0C9EEE5
:10021000D0E000E005C021970109802FFE01E5D55F
:10022000C83ED10780E00807B1F7CAD3E6C5E8CEDB
:10023000EBE5F2E0A089B18982E08C93A485B585D5
:100240001C92A685B78580E18C93108EA489B58910
:1002500086E08C93A289B3898C9180618C93A2896A
:10026000B3898C9188608C93A289B3898C918068C2
:100270008C930288F389E02D80818F7D808308959F
:10028000AF92BF92CF92DF92EF92FF920F931F93A4
:10029000CF93DF936C017B018B01040F151FEB01E2
:1002A0005E01AE18BF08C017D10759F06991D60199
:1002B000ED91FC910190F081E02DC6011995892BFB
:1002C00079F7C501DF91CF911F910F91FF90EF90CA
:1002D000DF90CF90BF90AF900895FC01538D448D77
:1002E000252F30E0842F90E0821B930B541710F0E1
:1002F000CF96089501970895FC01918D828D9817EE
:1003000061F0A28DAE0FBF2FB11D5D968C91928DC5
:100310009F5F9F73928F90E008958FEF9FEF0895F6
:10032000FC01918D828D981731F0828DE80FF11DBF
:10033000858D90E008958FEF9FEF0895FC01918DDA
:10034000228D892F90E0805C9F4F821B91098F73D3
:10035000992708958BE592E0F1DF21E0892B09F4DC
:1003600020E0822F0895FC01A48DA80FB92FB11DA4
:10037000A35ABF4F2C91848D90E001968F739927DB
:10038000848FA689B7892C93A089B1898C918370B9
:1003900080648C93938D848D981306C00288F389B2
:1003A000E02D80818F7D80830895EF92FF920F93DF
:1003B0001F93CF93DF93EC0181E0888F9B8D8C8D11
:1003C00098131AC0E889F989808185FF15C09FB705
:1003D000F894EE89FF896083E889F98980818370C8
:1003E000806480839FBF81E090E0DF91CF911F9177
:1003F0000F91FF90EF900895F62E0B8D10E00F5F98
:100400001F4F0F731127E02E8C8D8E110BC00FB66E
:1004100007FCFACFE889F989808185FFF5CFCE0105
:10042000A2DFF2CFEB8DEC0FFD2FF11DE35AFF4F52
:10043000F0829FB7F8940B8FEA89FB8980818062F4
:10044000D0CFCF93DF93EC01888D8823B1F0AA89B8
:10045000BB89E889F9898C9185FD03C0808186FD7F
:100460000CC00FB607FCF7CF8C9185FFF2CF8081CF
:1004700085FFEDCFCE0177DFEACFDF91CF910895F1
:1004800080E090E0892B21F065DF81110E9400005F
:1004900080E090E0892B49F080E090E0892B29F002
:1004A0000E94000081110E94000080E090E0892BF2
:1004B00049F080E090E0892B29F00E940000811132
:1004C0000E94000080E090E0892B49F080E090E0FD
:1004D000892B29F00E94000081110C9400000895DE
:1004E0003FB7F8948091530290915402A091550225
:1004F000B091560226B5A89B05C02F3F19F0019672
:10050000A11DB11D3FBFBA2FA92F982F8827BC016D
:10051000CD01620F711D811D911D42E0660F771F95
:10052000881F991F4A95D1F708958F929F92AF9295
:10053000BF92CF92DF92EF92FF924B015C01D0DF2E
:100540006B017C01CDDF6C197D098E099F09683E26
:10055000734081059105B0F321E0821A9108A1084A
:10056000B10888EEC80E83E0D81EE11CF11C81148E
:100570009104A104B10431F7FF90EF90DF90CF9088
:10058000BF90AF909F908F9008952FB7F89460918F
:100590004F027091500280915102909152022FBFF0
:1005A00008950F931F93CF93DF9300D01F92CDB781
:1005B000DEB78BE592E0A0DE8BE592E09DDE10E0F9
:1005C0008A3371F0E1E0F0E0EC0FFD1FE10FF11D67
:1005D00017FDFA9580831F5F8BE592E08DDEF0CFEB
:1005E000CE010196BBD38C018BE592E085DE282FEE
:1005F0002053330BA9012230310508F045C0980182
:100600003327F901E657FE4F9491F901EC5BFE4F59
:10061000649122503F4FF9012491222309F434C000
:10062000992309F191509231F0F4E92FF0E08827F5
:10063000E45EFC4F8F4FD9C3640368032E035C0351
:10064000600333036B03710375037B037F03830331
:1006500089038D033303910397039B0380918000EB
:100660008F7780938000E22FF0E0EE0FFF1FEC51B8
:10067000FF4FA591B4918FB7F894EC9141115FC0F1
:1006800060956E236C938FBF8BE592E035DE8A30E8
:1006900011F08D30C9F78BE592E042DE8A3009F027
:1006A00050C08BE592E00F900F900F900F90DF916C
:1006B000CF911F910F9120CE809180008F7DD1CF5F
:1006C00080918000877FCDCF84B58F7784BDCBCFDD
:1006D00084B58F7DFBCF8091B0008F778093B00081
:1006E000C2CF8091B0008F7DF9CF809190008F773D
:1006F00080939000B8CF809190008F7DF9CF80914A
:100700009000877FF5CF8091A0008F778093A00025
:10071000AACF8091A0008F7DF9CF8091A000877F24
:10072000F5CF809120018F77809320019CCF80911D
:1007300020018F7DF9CF80912001877FF5CF6E2B2F
:10074000A1CF0F900F900F900F90DF91CF911F913D
:100750000F910895FC0101900020E9F73197AF0156
:10076000481B590BBC018BE592E08ACD8F929F927A
:10077000AF92BF920F931F93CF93DF93CDB7DEB7A6
:10078000A1970FB6F894DEBF0FBECDBF19A24230BD
:1007900008F44AE08E010F5D1F4F842E912CB12C7E
:1007A000A12CA5019401FFD2E62FB901CA01EA30BC
:1007B000ECF4E05DD801EE938D01232B242B252B47
:1007C00081F790E080E0109711F0CD01C3DFA19692
:1007D0000FB6F894DEBF0FBECDBFDF91CF911F9152
:1007E0000F91BF90AF909F908F900895E95CE2CFFA
:1007F0001F920F920FB60F9211240BB60F922F93E8
:100800003F934F935F936F937F938F939F93AF9398
:10081000BF93EF93FF938BE592E0A5DDFF91EF91FE
:10082000BF91AF919F918F917F916F915F914F9108
:100830003F912F910F900BBE0F900FBE0F901F9006
:1008400018951F920F920FB60F9211240BB60F92AC
:100850002F938F939F93EF93FF93E0916B02F0910F
:100860006C028081E0917102F091720282FD1DC0E4
:100870009081809174028F5F8F732091750282172F
:1008800041F0E0917402F0E0E55AFD4F958F8093BE
:100890007402FF91EF919F918F912F910F900BBE5A
:1008A0000F900FBE0F901F9018958081F2CF1F926E
:1008B0000F920FB60F9211242F933F938F939F9314
:1008C000AF93BF9380914F0290915002A09151023B
:1008D000B091520230914E0223E0230F2D3758F58C
:1008E0000196A11DB11D20934E0280934F0290935B
:1008F0005002A0935102B093520280915302909102
:100900005402A0915502B09156020196A11DB11D4D
:100910008093530290935402A0935502B0935602D1
:10092000BF91AF919F918F913F912F910F900FBEEB
:100930000F901F90189526E8230F0296A11DB11D58
:10094000D2CFEBE5F2E01382128288EE93E0A0E0D2
:10095000B0E084839583A683B78384E092E091839B
:10096000808385EC90E09587848784EC90E097877E
:10097000868780EC90E0918B808B81EC90E0938B6C
:10098000828B82EC90E0958B848B86EC90E0978B49
:10099000868B118E128E138E148EE8EFF2E0168283
:1009A000178210861186128613861486158616867F
:1009B0001786108A118A128A138A148A158A089552
:1009C000789484B5826084BD84B5816084BD85B52A
:1009D000826085BD85B5816085BD80916E00816036
:1009E00080936E00109281008091810082608093DC
:1009F00081008091810081608093810080918000DE
:100A00008160809380008091B10084608093B10008
:100A10008091B00081608093B000809191008260ED
:100A200080939100809191008160809391008091EA
:100A300090008160809390008091A10082608093FB
:100A4000A1008091A10081608093A1008091A0000D
:100A500081608093A00080912101826080932101B8
:100A6000809121018160809321018091200181602A
:100A70008093200180917A00846080937A00809135
:100A80007A00826080937A0080917A0081608093FE
:100A90007A0080917A00806880937A001092C10079
:100AA00010923A0310923B0310923C0310923D03C4
:100AB0001092FA021092FB021092FC021092FD02B8
:100AC00064DD6B017C014B015C0128EB820E2BE0A5
:100AD000921EA11CB11C59DD6C157D058E059F056C
:100AE00028F086169706A806B906A8F768EE73E000
:100AF00080E090E01ADD9CDB48DD6093FA027093A1
:100B0000FB028093FC029093FD0282E192E022DEE0
:100B10003CDD6B017C014B015C013AE0830E911CD2
:100B2000A11CB11C32DD6C157D058E059F0528F0DA
:100B300086169706A806B906A8F781E080930E03EB
:100B400024DD6093FA027093FB028093FC02909381
:100B5000FD0283E292E0FEDD6BDB8AE292E0FADDE9
:100B600087E392E0F7DD64E670E080E090E0DDDCB2
:100B700084EF882E99249394A12CB12C06DD672B49
:100B8000682B692B09F4D8C000DDC0905702D090C3
:100B90005802E0905902F0905A026C157D058E05BE
:100BA0009F0508F4D2C0C0905702D0905802E09040
:100BB0005902F0905A029B01AC012C193D094E09D3
:100BC0005F0969017A013AEFC316D104E104F10427
:100BD00008F4B9C060935702709358028093590289
:100BE00090935A028092060390920703A092080302
:100BF000B092090310920A0310920B0310920C0397
:100C000010920D038091FE029091FF02A0910003CB
:100C1000B09101038093020390930303A093040314
:100C2000B0930503B2DC6093FE027093FF028093E1
:100C30000003909301038BE592E072DB843609F4A4
:100C4000B0DCA3DC6093FA027093FB028093FC0299
:100C50009093FD029ADC6B017C018AE392E07ADDDD
:100C60004AE061E070E080E090E080DD81E492E0C5
:100C700071DD4AE0C701B60179DD83E492E06ADD07
:100C80008091FE029091FF02A0910003B0910103B8
:100C9000A7019601281B390B4A0B5B0BCA01B9014E
:100CA0004AE064DD83E492E055DD6091FE027091DC
:100CB000FF028091000390910103C0900203D09045
:100CC0000303E0900403F09005036C197D098E097D
:100CD0009F094AE04BDD85E492E03CDD56DC4AE0CA
:100CE00045DD87E492E036DD87E392E033DD4DDCDD
:100CF0006B017C012B013C0135E0430E511C611C52
:100D0000711C43DC6C157D058E059F0528F0461689
:100D1000570668067906A8F78BE592E001DB843672
:100D200009F43FDC32DC6093FE027093FF02809393
:100D300000039093010307C028DC62307105810530
:100D4000910508F021CF9CDB19CF60935702709377
:100D500058028093590290935A0225CFFC018827AC
:100D60009927E89421912032E9F3293010F02E30B0
:100D7000C8F32B3239F02D3231F4689403C00BD014
:100D8000820F911D219120532A30C8F31EF49095B3
:100D900081959F4F08957AE0979F902D879F802D92
:100DA000910D11240895A1E21A2EAA1BBB1BFD016F
:100DB0000DC0AA1FBB1FEE1FFF1FA217B307E4073A
:100DC000F50720F0A21BB30BE40BF50B661F771F92
:100DD000881F991F1A9469F7609570958095909572
:100DE0009B01AC01BD01CF010895EE0FFF1F881FCD
:0E0DF0008BBF0790F691E02D1994F894FFCF79
:100DFE0000000000D50140016D0121029E017C0121
:100E0E009001564D4450565F317C315F564D4450E3
:100E1E00560A00564D4450525F0054657374205369
:100E2E00746172746564000D0A00564D4450455F3E
:0E0E3E00003A323A007C005F564D44504500A9
:00000001FF
